{
  "_format": "hh-sol-artifact-1",
  "contractName": "PocketIndex",
  "sourceName": "contracts/PocketIndex.sol",
  "abi": [
    {
      "inputs": [
        {
          "internalType": "address",
          "name": "_routerAddress",
          "type": "address"
        },
        {
          "internalType": "address",
          "name": "_baseTokenAddress",
          "type": "address"
        }
      ],
      "stateMutability": "nonpayable",
      "type": "constructor"
    },
    {
      "anonymous": false,
      "inputs": [
        {
          "indexed": false,
          "internalType": "address",
          "name": "contractAddress",
          "type": "address"
        },
        {
          "indexed": false,
          "internalType": "uint256",
          "name": "timestamp",
          "type": "uint256"
        }
      ],
      "name": "NewAssetAdded",
      "type": "event"
    },
    {
      "inputs": [
        {
          "internalType": "address",
          "name": "_contractAddress",
          "type": "address"
        }
      ],
      "name": "addAsset",
      "outputs": [],
      "stateMutability": "nonpayable",
      "type": "function"
    },
    {
      "inputs": [],
      "name": "approveEverything",
      "outputs": [],
      "stateMutability": "nonpayable",
      "type": "function"
    },
    {
      "inputs": [],
      "name": "baseTokenAddress",
      "outputs": [
        {
          "internalType": "address",
          "name": "",
          "type": "address"
        }
      ],
      "stateMutability": "view",
      "type": "function"
    },
    {
      "inputs": [],
      "name": "bulkBuy",
      "outputs": [],
      "stateMutability": "nonpayable",
      "type": "function"
    },
    {
      "inputs": [],
      "name": "currentWorth",
      "outputs": [
        {
          "internalType": "uint256",
          "name": "",
          "type": "uint256"
        }
      ],
      "stateMutability": "view",
      "type": "function"
    },
    {
      "inputs": [],
      "name": "disolvePosition",
      "outputs": [],
      "stateMutability": "nonpayable",
      "type": "function"
    },
    {
      "inputs": [
        {
          "internalType": "uint256",
          "name": "amount",
          "type": "uint256"
        }
      ],
      "name": "disolveWithLP",
      "outputs": [],
      "stateMutability": "nonpayable",
      "type": "function"
    },
    {
      "inputs": [],
      "name": "getAllAssets",
      "outputs": [
        {
          "components": [
            {
              "internalType": "address",
              "name": "contractAddress",
              "type": "address"
            },
            {
              "internalType": "uint256",
              "name": "balance",
              "type": "uint256"
            }
          ],
          "internalType": "struct PocketIndex.Asset[]",
          "name": "",
          "type": "tuple[]"
        }
      ],
      "stateMutability": "view",
      "type": "function"
    },
    {
      "inputs": [
        {
          "internalType": "address",
          "name": "user",
          "type": "address"
        },
        {
          "internalType": "address",
          "name": "_contractAddress",
          "type": "address"
        }
      ],
      "name": "getBalance",
      "outputs": [
        {
          "internalType": "uint256",
          "name": "",
          "type": "uint256"
        }
      ],
      "stateMutability": "view",
      "type": "function"
    },
    {
      "inputs": [
        {
          "internalType": "address",
          "name": "user",
          "type": "address"
        }
      ],
      "name": "getBalances",
      "outputs": [
        {
          "internalType": "uint256[]",
          "name": "",
          "type": "uint256[]"
        }
      ],
      "stateMutability": "view",
      "type": "function"
    },
    {
      "inputs": [],
      "name": "getLastBuyTime",
      "outputs": [
        {
          "internalType": "uint256",
          "name": "",
          "type": "uint256"
        }
      ],
      "stateMutability": "view",
      "type": "function"
    },
    {
      "inputs": [],
      "name": "getNextBuyers",
      "outputs": [
        {
          "internalType": "address[]",
          "name": "",
          "type": "address[]"
        }
      ],
      "stateMutability": "view",
      "type": "function"
    },
    {
      "inputs": [],
      "name": "getTotalAssets",
      "outputs": [
        {
          "internalType": "uint256",
          "name": "",
          "type": "uint256"
        }
      ],
      "stateMutability": "view",
      "type": "function"
    },
    {
      "inputs": [],
      "name": "getTotalBuyers",
      "outputs": [
        {
          "internalType": "uint256",
          "name": "",
          "type": "uint256"
        }
      ],
      "stateMutability": "view",
      "type": "function"
    },
    {
      "inputs": [
        {
          "internalType": "address",
          "name": "_contractAddress",
          "type": "address"
        }
      ],
      "name": "getTotalInvestedForAsset",
      "outputs": [
        {
          "internalType": "uint256",
          "name": "",
          "type": "uint256"
        }
      ],
      "stateMutability": "view",
      "type": "function"
    },
    {
      "inputs": [
        {
          "internalType": "address",
          "name": "user",
          "type": "address"
        }
      ],
      "name": "getUSDTBalance",
      "outputs": [
        {
          "internalType": "uint256",
          "name": "",
          "type": "uint256"
        }
      ],
      "stateMutability": "view",
      "type": "function"
    },
    {
      "inputs": [],
      "name": "indexLPToken",
      "outputs": [
        {
          "internalType": "contract IIndexLP",
          "name": "",
          "type": "address"
        }
      ],
      "stateMutability": "view",
      "type": "function"
    },
    {
      "inputs": [],
      "name": "lastBuyTime",
      "outputs": [
        {
          "internalType": "uint256",
          "name": "",
          "type": "uint256"
        }
      ],
      "stateMutability": "view",
      "type": "function"
    },
    {
      "inputs": [],
      "name": "managementFee",
      "outputs": [
        {
          "internalType": "uint256",
          "name": "",
          "type": "uint256"
        }
      ],
      "stateMutability": "view",
      "type": "function"
    },
    {
      "inputs": [],
      "name": "performanceFee",
      "outputs": [
        {
          "internalType": "uint256",
          "name": "",
          "type": "uint256"
        }
      ],
      "stateMutability": "view",
      "type": "function"
    },
    {
      "inputs": [
        {
          "internalType": "uint256",
          "name": "amount",
          "type": "uint256"
        },
        {
          "internalType": "address",
          "name": "from",
          "type": "address"
        }
      ],
      "name": "pitchAmount",
      "outputs": [],
      "stateMutability": "nonpayable",
      "type": "function"
    },
    {
      "inputs": [
        {
          "internalType": "address",
          "name": "_indexLPToken",
          "type": "address"
        }
      ],
      "name": "setIndexLPToken",
      "outputs": [],
      "stateMutability": "nonpayable",
      "type": "function"
    },
    {
      "inputs": [],
      "name": "totalBulkBuys",
      "outputs": [
        {
          "internalType": "uint256",
          "name": "",
          "type": "uint256"
        }
      ],
      "stateMutability": "view",
      "type": "function"
    },
    {
      "inputs": [
        {
          "internalType": "address",
          "name": "user",
          "type": "address"
        },
        {
          "internalType": "uint256",
          "name": "amount",
          "type": "uint256"
        }
      ],
      "name": "withdrawUSDTBalance",
      "outputs": [],
      "stateMutability": "nonpayable",
      "type": "function"
    }
  ],
  "bytecode": "0x60806040523480156200001157600080fd5b506040516200329838038062003298833981016040819052620000349162000129565b600080546001600160a01b03199081166001600160a01b038581169182178455600180548416918616919091178155600480548416909217825560038054339416841790556008939093556007839055600692909255604051632210724360e11b81529182015273bbd707815a7f7eb6897c7686274afabd7b579ff6908190634420e486906024016020604051808303816000875af1158015620000dc573d6000803e3d6000fd5b505050506040513d601f19601f8201168201806040525081019062000102919062000161565b505050506200017b565b80516001600160a01b03811681146200012457600080fd5b919050565b600080604083850312156200013d57600080fd5b62000148836200010c565b915062000158602084016200010c565b90509250929050565b6000602082840312156200017457600080fd5b5051919050565b61310d806200018b6000396000f3fe608060405234801561001057600080fd5b50600436106101985760003560e01c806385b27116116100e3578063d16dd5381161008c578063f29f4d0b11610066578063f29f4d0b1461038b578063fb7cf19214610394578063fd417669146103e957600080fd5b8063d16dd53814610324578063d4fac45d14610339578063e97b76891461038357600080fd5b8063a6f7f5d6116100bd578063a6f7f5d6146102e8578063babb4259146102f1578063c84aae171461030457600080fd5b806385b27116146102a157806387788782146102d75780639472fb8e146102e057600080fd5b806351c9a941116101455780636e07302b1161011f5780636e07302b1461026657806376f3e8871461026e5780637cb374bd1461028157600080fd5b806351c9a941146102345780635eda26e61461023c578063656d3d001461024f57600080fd5b8063298410e511610176578063298410e5146102045780632acada4d146102175780633bfdbda51461022c57600080fd5b8063059351a41461019d5780630d357b2b146101e75780632230ba2d146101f1575b600080fd5b6002546101bd9073ffffffffffffffffffffffffffffffffffffffff1681565b60405173ffffffffffffffffffffffffffffffffffffffff90911681526020015b60405180910390f35b6101ef6103f1565b005b6101ef6101ff366004612c2f565b6105a5565b6101ef610212366004612c71565b610e92565b61021f610f85565b6040516101de9190612c8c565b6101ef611007565b6101ef611cae565b6101ef61024a366004612cf1565b612203565b61025860085481565b6040519081526020016101de565b600a54610258565b61025861027c366004612c71565b612457565b6001546101bd9073ffffffffffffffffffffffffffffffffffffffff1681565b6102586102af366004612c71565b73ffffffffffffffffffffffffffffffffffffffff1660009081526009602052604090205490565b61025860075481565b6102586124ee565b61025860065481565b6101ef6102ff366004612d1d565b612785565b610317610312366004612c71565b612967565b6040516101de9190612d47565b61032c612a6f565b6040516101de9190612ddc565b610258610347366004612def565b73ffffffffffffffffffffffffffffffffffffffff91821660009081526009602090815260408083209390941682526001909201909152205490565b600b54610258565b61025860055481565b6101ef6103a2366004612c71565b600280547fffffffffffffffffffffffff00000000000000000000000000000000000000001673ffffffffffffffffffffffffffffffffffffffff92909216919091179055565b600554610258565b600a5460005b818110156105a157600a818154811061041257610412612e19565b600091825260208220600290910201549054600a805473ffffffffffffffffffffffffffffffffffffffff9384169363095ea7b3931691908590811061045a5761045a612e19565b60009182526020909120600290910201546040517f70a0823100000000000000000000000000000000000000000000000000000000815230600482015273ffffffffffffffffffffffffffffffffffffffff909116906370a0823190602401602060405180830381865afa1580156104d6573d6000803e3d6000fd5b505050506040513d601f19601f820116820180604052508101906104fa9190612e48565b6040517fffffffff0000000000000000000000000000000000000000000000000000000060e085901b16815273ffffffffffffffffffffffffffffffffffffffff909216600483015260248201526044016020604051808303816000875af115801561056a573d6000803e3d6000fd5b505050506040513d601f19601f8201168201806040525081019061058e9190612e61565b508061059981612eb2565b9150506103f7565b5050565b60008111610614576040517f08c379a000000000000000000000000000000000000000000000000000000000815260206004820152601d60248201527f416d6f756e74206d7573742062652067726561746572207468616e203000000060448201526064015b60405180910390fd5b6002546040517f70a08231000000000000000000000000000000000000000000000000000000008152336004820152829173ffffffffffffffffffffffffffffffffffffffff16906370a0823190602401602060405180830381865afa158015610682573d6000803e3d6000fd5b505050506040513d601f19601f820116820180604052508101906106a69190612e48565b101561070e576040517f08c379a000000000000000000000000000000000000000000000000000000000815260206004820152601660248201527f4d757374206861766520736169642062616c616e636500000000000000000000604482015260640161060b565b6002546040517f70a0823100000000000000000000000000000000000000000000000000000000815233600482015260009173ffffffffffffffffffffffffffffffffffffffff16906370a0823190602401602060405180830381865afa15801561077d573d6000803e3d6000fd5b505050506040513d601f19601f820116820180604052508101906107a19190612e48565b60035490915073ffffffffffffffffffffffffffffffffffffffff163303610825576040517f08c379a000000000000000000000000000000000000000000000000000000000815260206004820152601360248201527f43616e277420626520696e746572616374656400000000000000000000000000604482015260640161060b565b6001546040517f70a0823100000000000000000000000000000000000000000000000000000000815230600482015260009173ffffffffffffffffffffffffffffffffffffffff16906370a0823190602401602060405180830381865afa158015610894573d6000803e3d6000fd5b505050506040513d601f19601f820116820180604052508101906108b89190612e48565b600a5490915060006108d5846108cf876064612ade565b90612af1565b6040805160028082526060820183529293506000929091602083019080368337505060018054835193945073ffffffffffffffffffffffffffffffffffffffff1692849250811061092857610928612e19565b602002602001019073ffffffffffffffffffffffffffffffffffffffff16908173ffffffffffffffffffffffffffffffffffffffff168152505060005b83811015610b9457600a818154811061098057610980612e19565b60009182526020822060029091020154835173ffffffffffffffffffffffffffffffffffffffff9091169184916109b9576109b9612e19565b73ffffffffffffffffffffffffffffffffffffffff909216602092830291909101820152336000908152600990915260408120600a8054610a50926064926108cf92899260010191879189908110610a1357610a13612e19565b6000918252602080832060029092029091015473ffffffffffffffffffffffffffffffffffffffff16835282019290925260400190205490612ade565b60045490915073ffffffffffffffffffffffffffffffffffffffff166338ed17398260008630610a81426005612f19565b6040518663ffffffff1660e01b8152600401610aa1959493929190612f2c565b6000604051808303816000875af1158015610ac0573d6000803e3d6000fd5b505050506040513d6000823e601f3d9081017fffffffffffffffffffffffffffffffffffffffffffffffffffffffffffffffe0168201604052610b069190810190612f75565b50336000908152600960205260408120600a80548493600190930192919086908110610b3457610b34612e19565b6000918252602080832060029092029091015473ffffffffffffffffffffffffffffffffffffffff16835282019290925260400181208054909190610b7a908490613051565b90915550829150610b8c905081612eb2565b915050610965565b506001546040517f70a08231000000000000000000000000000000000000000000000000000000008152306004820152600091610c3591879173ffffffffffffffffffffffffffffffffffffffff16906370a08231906024015b602060405180830381865afa158015610c0b573d6000803e3d6000fd5b505050506040513d601f19601f82011682018060405250810190610c2f9190612e48565b90612afd565b90506000610c546103e86108cf60065485612ade90919063ffffffff16565b90506000610c736103e86108cf60075486612ade90919063ffffffff16565b9050610c8381610c2f8585612afd565b3360009081526009602052604081208054909190610ca2908490612f19565b909155505060015433600081815260096020526040908190205490517fa9059cbb0000000000000000000000000000000000000000000000000000000081526004810192909252602482015273ffffffffffffffffffffffffffffffffffffffff9091169063a9059cbb906044016020604051808303816000875af1158015610d2f573d6000803e3d6000fd5b505050506040513d601f19601f82011682018060405250810190610d539190612e61565b50336000908152600960205260408082209190915560025490517fa9059cbb000000000000000000000000000000000000000000000000000000008152306004820152602481018b905273ffffffffffffffffffffffffffffffffffffffff9091169063a9059cbb906044016020604051808303816000875af1158015610dde573d6000803e3d6000fd5b505050506040513d601f19601f82011682018060405250810190610e029190612e61565b506002546040517f42966c68000000000000000000000000000000000000000000000000000000008152600481018b905273ffffffffffffffffffffffffffffffffffffffff909116906342966c6890602401600060405180830381600087803b158015610e6f57600080fd5b505af1158015610e83573d6000803e3d6000fd5b50505050505050505050505050565b60408051808201825273ffffffffffffffffffffffffffffffffffffffff83811680835260006020808501828152600a8054600181018255935294517fc65a7bb8d6351c1cf70c95a316cc6a92839c986682d98bc35f958f4883f9d2a8600290930292830180547fffffffffffffffffffffffff000000000000000000000000000000000000000016919095161790935592517fc65a7bb8d6351c1cf70c95a316cc6a92839c986682d98bc35f958f4883f9d2a990930192909255825191825242908201527f6dfc6b499373a130decc8ee67ecc2b1f3eaf6589c6cf609b84c03d71e5c4ccec910160405180910390a150565b6060600a805480602002602001604051908101604052809291908181526020016000905b82821015610ffe5760008481526020908190206040805180820190915260028502909101805473ffffffffffffffffffffffffffffffffffffffff168252600190810154828401529083529092019101610fa9565b50505050905090565b60035473ffffffffffffffffffffffffffffffffffffffff163314611088576040517f08c379a000000000000000000000000000000000000000000000000000000000815260206004820152601360248201527f43616e277420626520696e746572616374656400000000000000000000000000604482015260640161060b565b6001546040517f70a0823100000000000000000000000000000000000000000000000000000000815230600482015260009173ffffffffffffffffffffffffffffffffffffffff16906370a0823190602401602060405180830381865afa1580156110f7573d6000803e3d6000fd5b505050506040513d601f19601f8201168201806040525081019061111b9190612e48565b11611182576040517f08c379a000000000000000000000000000000000000000000000000000000000815260206004820152601360248201527f446f6e2774206861766520616e797468696e6700000000000000000000000000604482015260640161060b565b6001546000546040517f70a0823100000000000000000000000000000000000000000000000000000000815230600482015273ffffffffffffffffffffffffffffffffffffffff9283169263095ea7b392169083906370a0823190602401602060405180830381865afa1580156111fd573d6000803e3d6000fd5b505050506040513d601f19601f820116820180604052508101906112219190612e48565b6040517fffffffff0000000000000000000000000000000000000000000000000000000060e085901b16815273ffffffffffffffffffffffffffffffffffffffff909216600483015260248201526044016020604051808303816000875af1158015611291573d6000803e3d6000fd5b505050506040513d601f19601f820116820180604052508101906112b59190612e61565b506001546040517f70a0823100000000000000000000000000000000000000000000000000000000815230600482015260009173ffffffffffffffffffffffffffffffffffffffff16906370a0823190602401602060405180830381865afa158015611325573d6000803e3d6000fd5b505050506040513d601f19601f820116820180604052508101906113499190612e48565b90506008546000036113e4576002546040517f40c10f190000000000000000000000000000000000000000000000000000000081523060048201526024810183905273ffffffffffffffffffffffffffffffffffffffff909116906340c10f1990604401600060405180830381600087803b1580156113c757600080fd5b505af11580156113db573d6000803e3d6000fd5b5050505061157c565b600254604080517f18160ddd000000000000000000000000000000000000000000000000000000008152905160009273ffffffffffffffffffffffffffffffffffffffff16916318160ddd9160048083019260209291908290030181865afa158015611454573d6000803e3d6000fd5b505050506040513d601f19601f820116820180604052508101906114789190612e48565b90506103e8826114866124ee565b6114909082612f19565b905060006114a4826108cf876103e8612ade565b905060006114b28483612afd565b905060006114c6826108cf886103e8612ade565b60025490915073ffffffffffffffffffffffffffffffffffffffff166340c10f19306114f2848a612afd565b6040517fffffffff0000000000000000000000000000000000000000000000000000000060e085901b16815273ffffffffffffffffffffffffffffffffffffffff90921660048301526024820152604401600060405180830381600087803b15801561155d57600080fd5b505af1158015611571573d6000803e3d6000fd5b505050505050505050505b6001546040517f70a08231000000000000000000000000000000000000000000000000000000008152306004820152600091611624916064916108cf91600a9173ffffffffffffffffffffffffffffffffffffffff16906370a08231906024015b602060405180830381865afa1580156115fa573d6000803e3d6000fd5b505050506040513d601f19601f8201168201806040525081019061161e9190612e48565b90612ade565b42600555600a5490915060008167ffffffffffffffff81111561164957611649612eea565b604051908082528060200260200182016040528015611672578160200160208202803683370190505b50905060005b8281101561176257600a818154811061169357611693612e19565b60009182526020909120600290910201546040517f70a0823100000000000000000000000000000000000000000000000000000000815230600482015273ffffffffffffffffffffffffffffffffffffffff909116906370a0823190602401602060405180830381865afa15801561170f573d6000803e3d6000fd5b505050506040513d601f19601f820116820180604052508101906117339190612e48565b82828151811061174557611745612e19565b60209081029190910101528061175a81612eb2565b915050611678565b5060005b8281101561190257604080516002808252606082018352600092602083019080368337019050509050600a82815481106117a2576117a2612e19565b6000918252602090912060029091020154815173ffffffffffffffffffffffffffffffffffffffff90911690829060019081106117e1576117e1612e19565b73ffffffffffffffffffffffffffffffffffffffff92831660209182029290920101526001548251911690829060009061181d5761181d612e19565b73ffffffffffffffffffffffffffffffffffffffff9283166020918202929092010152600480546040517f38ed17390000000000000000000000000000000000000000000000000000000081529216916338ed17399161188891899160009187913091429101612f2c565b6000604051808303816000875af11580156118a7573d6000803e3d6000fd5b505050506040513d6000823e601f3d9081017fffffffffffffffffffffffffffffffffffffffffffffffffffffffffffffffe01682016040526118ed9190810190612f75565b505080806118fa90612eb2565b915050611766565b50600b5460005b81811015611c7357600060096000600b848154811061192a5761192a612e19565b600091825260208083209091015473ffffffffffffffffffffffffffffffffffffffff9081168452908301939093526040909101902054600254600b805492945092169163a9059cbb918590811061198457611984612e19565b6000918252602090912001546002546040517f70a0823100000000000000000000000000000000000000000000000000000000815230600482015273ffffffffffffffffffffffffffffffffffffffff928316926119f4928d926108cf92899216906370a08231906024016115dd565b6040517fffffffff0000000000000000000000000000000000000000000000000000000060e085901b16815273ffffffffffffffffffffffffffffffffffffffff909216600483015260248201526044016020604051808303816000875af1158015611a64573d6000803e3d6000fd5b505050506040513d601f19601f82011682018060405250810190611a889190612e61565b506000611a9b60646108cf84600a612ade565b905060005b86811015611c12576000611b3e878381518110611abf57611abf612e19565b6020026020010151600a8481548110611ada57611ada612e19565b60009182526020909120600290910201546040517f70a0823100000000000000000000000000000000000000000000000000000000815230600482015273ffffffffffffffffffffffffffffffffffffffff909116906370a0823190602401610bee565b9050611b4e896108cf8386612ade565b60096000600b8881548110611b6557611b65612e19565b600091825260208083209091015473ffffffffffffffffffffffffffffffffffffffff1683528201929092526040018120600a8054600192909201929186908110611bb257611bb2612e19565b6000918252602080832060029092029091015473ffffffffffffffffffffffffffffffffffffffff16835282019290925260400181208054909190611bf8908490612f19565b90915550829150611c0a905081612eb2565b915050611aa0565b50600060096000600b8681548110611c2c57611c2c612e19565b600091825260208083209091015473ffffffffffffffffffffffffffffffffffffffff16835282019290925260400190205550819050611c6b81612eb2565b915050611909565b506040805160008152602081019182905251611c9191600b91612b90565b5060088054906000611ca283612eb2565b91905055505050505050565b60035473ffffffffffffffffffffffffffffffffffffffff163303611d2f576040517f08c379a000000000000000000000000000000000000000000000000000000000815260206004820152601360248201527f43616e277420626520696e746572616374656400000000000000000000000000604482015260640161060b565b6001546040517f70a0823100000000000000000000000000000000000000000000000000000000815230600482015260009173ffffffffffffffffffffffffffffffffffffffff16906370a0823190602401602060405180830381865afa158015611d9e573d6000803e3d6000fd5b505050506040513d601f19601f82011682018060405250810190611dc29190612e48565b600a54604080516002808252606082018352939450919260009291602083019080368337505060018054835193945073ffffffffffffffffffffffffffffffffffffffff16928492508110611e1957611e19612e19565b602002602001019073ffffffffffffffffffffffffffffffffffffffff16908173ffffffffffffffffffffffffffffffffffffffff16815250506000805b83811015611fec57600a8181548110611e7257611e72612e19565b60009182526020822060029091020154845173ffffffffffffffffffffffffffffffffffffffff909116918591611eab57611eab612e19565b73ffffffffffffffffffffffffffffffffffffffff909216602092830291909101820152336000908152600990915260408120600a80546001909201929184908110611ef957611ef9612e19565b6000918252602080832060029092029091015473ffffffffffffffffffffffffffffffffffffffff9081168452908301939093526040909101812054600454909450909116906338ed17399084908630611f54426005612f19565b6040518663ffffffff1660e01b8152600401611f74959493929190612f2c565b6000604051808303816000875af1158015611f93573d6000803e3d6000fd5b505050506040513d6000823e601f3d9081017fffffffffffffffffffffffffffffffffffffffffffffffffffffffffffffffe0168201604052611fd99190810190612f75565b5080611fe481612eb2565b915050611e57565b506001546040517f70a0823100000000000000000000000000000000000000000000000000000000815230600482015260009161204a91879173ffffffffffffffffffffffffffffffffffffffff16906370a0823190602401610bee565b905060006120696103e86108cf60065485612ade90919063ffffffff16565b905060006120886103e86108cf60075486612ade90919063ffffffff16565b905060005b8681101561210a57336000908152600960205260408120600a8054600190920191839190859081106120c1576120c1612e19565b6000918252602080832060029092029091015473ffffffffffffffffffffffffffffffffffffffff1683528201929092526040019020558061210281612eb2565b91505061208d565b5061211981610c2f8585612afd565b3360009081526009602052604081208054909190612138908490612f19565b909155505060015433600081815260096020526040908190205490517fa9059cbb0000000000000000000000000000000000000000000000000000000081526004810192909252602482015273ffffffffffffffffffffffffffffffffffffffff9091169063a9059cbb906044016020604051808303816000875af11580156121c5573d6000803e3d6000fd5b505050506040513d601f19601f820116820180604052508101906121e99190612e61565b505033600090815260096020526040812055505050505050565b6001546040517f70a08231000000000000000000000000000000000000000000000000000000008152336004820152839173ffffffffffffffffffffffffffffffffffffffff16906370a0823190602401602060405180830381865afa158015612271573d6000803e3d6000fd5b505050506040513d601f19601f820116820180604052508101906122959190612e48565b1015612323576040517f08c379a000000000000000000000000000000000000000000000000000000000815260206004820152602260248201527f446f6e2774206861766520656e6f75676820616d6f756e7420696e20652e555360448201527f4454000000000000000000000000000000000000000000000000000000000000606482015260840161060b565b6001546040517f23b872dd00000000000000000000000000000000000000000000000000000000815273ffffffffffffffffffffffffffffffffffffffff838116600483015230602483015260448201859052909116906323b872dd906064016020604051808303816000875af11580156123a2573d6000803e3d6000fd5b505050506040513d601f19601f820116820180604052508101906123c69190612e61565b5033600090815260096020526040812080548492906123e6908490612f19565b909155506123f5905033612b09565b6105a157600b80546001810182556000919091527f0175b7a638427703f0dbe7bb9bbf987a2551717b34e79f33b5b1008d1fa01db90180547fffffffffffffffffffffffff000000000000000000000000000000000000000016331790555050565b6040517f70a0823100000000000000000000000000000000000000000000000000000000815230600482015260009073ffffffffffffffffffffffffffffffffffffffff8316906370a0823190602401602060405180830381865afa1580156124c4573d6000803e3d6000fd5b505050506040513d601f19601f820116820180604052508101906124e89190612e48565b92915050565b604080516002808252606082018352600092839283929091602083019080368337505060018054835193945073ffffffffffffffffffffffffffffffffffffffff1692849250811061254257612542612e19565b602002602001019073ffffffffffffffffffffffffffffffffffffffff16908173ffffffffffffffffffffffffffffffffffffffff168152505060005b600a5481101561277d57600a818154811061259c5761259c612e19565b60009182526020822060029091020154835173ffffffffffffffffffffffffffffffffffffffff9091169184916125d5576125d5612e19565b73ffffffffffffffffffffffffffffffffffffffff9283166020918202929092010152600454600a8054600093929092169163d06ca61f91908590811061261e5761261e612e19565b60009182526020909120600290910201546040517f70a0823100000000000000000000000000000000000000000000000000000000815230600482015273ffffffffffffffffffffffffffffffffffffffff909116906370a0823190602401602060405180830381865afa15801561269a573d6000803e3d6000fd5b505050506040513d601f19601f820116820180604052508101906126be9190612e48565b856040518363ffffffff1660e01b81526004016126dc929190613064565b600060405180830381865afa1580156126f9573d6000803e3d6000fd5b505050506040513d6000823e601f3d9081017fffffffffffffffffffffffffffffffffffffffffffffffffffffffffffffffe016820160405261273f9190810190612f75565b90508060018151811061275457612754612e19565b6020026020010151846127679190612f19565b935050808061277590612eb2565b91505061257f565b509092915050565b73ffffffffffffffffffffffffffffffffffffffff8216600090815260096020526040902054612811576040517f08c379a000000000000000000000000000000000000000000000000000000000815260206004820152601f60248201527f446f6e2774206861766520616e797468696e6720746f20776974686472617700604482015260640161060b565b73ffffffffffffffffffffffffffffffffffffffff82166000908152600960205260409020548110156128c5576040517f08c379a0000000000000000000000000000000000000000000000000000000008152602060048201526024808201527f446f6e2774206861766520656e6f75676820616d6f756e7420746f207769746860448201527f6472617700000000000000000000000000000000000000000000000000000000606482015260840161060b565b6001546040517fa9059cbb00000000000000000000000000000000000000000000000000000000815273ffffffffffffffffffffffffffffffffffffffff8481166004830152602482018490529091169063a9059cbb906044016020604051808303816000875af115801561293e573d6000803e3d6000fd5b505050506040513d601f19601f820116820180604052508101906129629190612e61565b505050565b600a5460609060008167ffffffffffffffff81111561298857612988612eea565b6040519080825280602002602001820160405280156129b1578160200160208202803683370190505b50905060005b82811015612a675773ffffffffffffffffffffffffffffffffffffffff85166000908152600960205260408120600a805460019092019291849081106129ff576129ff612e19565b6000918252602080832060029092029091015473ffffffffffffffffffffffffffffffffffffffff1683528201929092526040019020548251839083908110612a4a57612a4a612e19565b602090810291909101015280612a5f81612eb2565b9150506129b7565b509392505050565b6060600b805480602002602001604051908101604052809291908181526020018280548015612ad457602002820191906000526020600020905b815473ffffffffffffffffffffffffffffffffffffffff168152600190910190602001808311612aa9575b5050505050905090565b6000612aea8284613085565b9392505050565b6000612aea828461309c565b6000612aea8284613051565b600b54600090815b81811015612b86578373ffffffffffffffffffffffffffffffffffffffff16600b8281548110612b4357612b43612e19565b60009182526020909120015473ffffffffffffffffffffffffffffffffffffffff1603612b74575060019392505050565b80612b7e81612eb2565b915050612b11565b5060009392505050565b828054828255906000526020600020908101928215612c0a579160200282015b82811115612c0a57825182547fffffffffffffffffffffffff00000000000000000000000000000000000000001673ffffffffffffffffffffffffffffffffffffffff909116178255602090920191600190910190612bb0565b50612c16929150612c1a565b5090565b5b80821115612c165760008155600101612c1b565b600060208284031215612c4157600080fd5b5035919050565b803573ffffffffffffffffffffffffffffffffffffffff81168114612c6c57600080fd5b919050565b600060208284031215612c8357600080fd5b612aea82612c48565b602080825282518282018190526000919060409081850190868401855b82811015612ce4578151805173ffffffffffffffffffffffffffffffffffffffff168552860151868501529284019290850190600101612ca9565b5091979650505050505050565b60008060408385031215612d0457600080fd5b82359150612d1460208401612c48565b90509250929050565b60008060408385031215612d3057600080fd5b612d3983612c48565b946020939093013593505050565b6020808252825182820181905260009190848201906040850190845b81811015612d7f57835183529284019291840191600101612d63565b50909695505050505050565b600081518084526020808501945080840160005b83811015612dd157815173ffffffffffffffffffffffffffffffffffffffff1687529582019590820190600101612d9f565b509495945050505050565b602081526000612aea6020830184612d8b565b60008060408385031215612e0257600080fd5b612e0b83612c48565b9150612d1460208401612c48565b7f4e487b7100000000000000000000000000000000000000000000000000000000600052603260045260246000fd5b600060208284031215612e5a57600080fd5b5051919050565b600060208284031215612e7357600080fd5b81518015158114612aea57600080fd5b7f4e487b7100000000000000000000000000000000000000000000000000000000600052601160045260246000fd5b60007fffffffffffffffffffffffffffffffffffffffffffffffffffffffffffffffff8203612ee357612ee3612e83565b5060010190565b7f4e487b7100000000000000000000000000000000000000000000000000000000600052604160045260246000fd5b808201808211156124e8576124e8612e83565b85815284602082015260a060408201526000612f4b60a0830186612d8b565b73ffffffffffffffffffffffffffffffffffffffff94909416606083015250608001529392505050565b60006020808385031215612f8857600080fd5b825167ffffffffffffffff80821115612fa057600080fd5b818501915085601f830112612fb457600080fd5b815181811115612fc657612fc6612eea565b8060051b6040517fffffffffffffffffffffffffffffffffffffffffffffffffffffffffffffffe0603f8301168101818110858211171561300957613009612eea565b60405291825284820192508381018501918883111561302757600080fd5b938501935b828510156130455784518452938501939285019261302c565b98975050505050505050565b818103818111156124e8576124e8612e83565b82815260406020820152600061307d6040830184612d8b565b949350505050565b80820281158282048414176124e8576124e8612e83565b6000826130d2577f4e487b7100000000000000000000000000000000000000000000000000000000600052601260045260246000fd5b50049056fea2646970667358221220c2197e45655e8539de063bb730af9ecc9ba8a037df86a6064a2a47a9c56fe0f064736f6c63430008140033",
  "linkReferences": {},
  "deployedLinkReferences": {}
}